{
  "transactions": [
    {
      "hash": "0x47348e712b3486d937ff160f89094930336ced7e87d35591b1da1014755a111a",
      "transactionType": "CALL",
      "contractName": null,
      "contractAddress": "0x5fda84f0d0985e346ff0fe13dfd7760a9ff1ed43",
      "function": "approve(address,uint256)",
      "arguments": [
        "0x5F1311808ED97661D5b31F4C67637D8952a54cc0",
        "115792089237316195423570985008687907853269984665640564039457584007913129639935"
      ],
      "transaction": {
        "from": "0xb00e22ece80c68c021704aedbd653f024509ac25",
        "to": "0x5fda84f0d0985e346ff0fe13dfd7760a9ff1ed43",
        "gas": "0xfee1",
        "value": "0x0",
        "input": "0x095ea7b30000000000000000000000005f1311808ed97661d5b31f4c67637d8952a54cc0ffffffffffffffffffffffffffffffffffffffffffffffffffffffffffffffff",
        "nonce": "0x41",
        "chainId": "0x221"
      },
      "additionalContracts": [],
      "isFixedGasLimit": false
    },
    {
      "hash": "0x19cec45b34997a1386a4894a17b67e1e9a9a39f0f513b26d1877244c2c1863d0",
      "transactionType": "CALL",
      "contractName": null,
      "contractAddress": "0x5f1311808ed97661d5b31f4c67637d8952a54cc0",
      "function": "buyOINR(uint256)",
      "arguments": [
        "166000000000000000000000"
      ],
      "transaction": {
        "from": "0xb00e22ece80c68c021704aedbd653f024509ac25",
        "to": "0x5f1311808ed97661d5b31f4c67637d8952a54cc0",
        "gas": "0x1e8ad",
        "value": "0x0",
        "input": "0xe59574e0000000000000000000000000000000000000000000002326e0c6ae4e5bc00000",
        "nonce": "0x42",
        "chainId": "0x221"
      },
      "additionalContracts": [],
      "isFixedGasLimit": false
    },
    {
      "hash": "0xec9757af124cf7205c0708b9f19000e98cae9071b808a326263c9cfe85023c0b",
      "transactionType": "CALL",
      "contractName": null,
      "contractAddress": "0x5fda84f0d0985e346ff0fe13dfd7760a9ff1ed43",
      "function": "approve(address,uint256)",
      "arguments": [
        "0x0009f72e3c176163037807f6365695DCeED2a09B",
        "10000000000"
      ],
      "transaction": {
        "from": "0xb00e22ece80c68c021704aedbd653f024509ac25",
        "to": "0x5fda84f0d0985e346ff0fe13dfd7760a9ff1ed43",
        "gas": "0xfd00",
        "value": "0x0",
        "input": "0x095ea7b30000000000000000000000000009f72e3c176163037807f6365695dceed2a09b00000000000000000000000000000000000000000000000000000002540be400",
        "nonce": "0x43",
        "chainId": "0x221"
      },
      "additionalContracts": [],
      "isFixedGasLimit": false
    },
    {
      "hash": "0x048094bccf8e4bcc45faeaffbbfbf3f22c7c8d095f15373d5a761417a1537311",
      "transactionType": "CALL",
      "contractName": null,
      "contractAddress": "0x13d855720e87ec59bfc4e27851027f5d8d8e9eae",
      "function": "approve(address,uint256)",
      "arguments": [
        "0x5923227b1E40fEbDA88B5231a573069F9669Fb9a",
        "100000000000000000000000"
      ],
      "transaction": {
        "from": "0xb00e22ece80c68c021704aedbd653f024509ac25",
        "to": "0x13d855720e87ec59bfc4e27851027f5d8d8e9eae",
        "gas": "0xfd73",
        "value": "0x0",
        "input": "0x095ea7b30000000000000000000000005923227b1e40febda88b5231a573069f9669fb9a00000000000000000000000000000000000000000000152d02c7e14af6800000",
        "nonce": "0x44",
        "chainId": "0x221"
      },
      "additionalContracts": [],
      "isFixedGasLimit": false
    },
    {
      "hash": "0x681eca6c025afbe9c63815ad24ecbdb2b3f9d731e162457a0dca4fb184acc604",
      "transactionType": "CALL",
      "contractName": null,
      "contractAddress": "0x0009f72e3c176163037807f6365695dceed2a09b",
      "function": "fundVault(uint256)",
      "arguments": [
        "10000000000"
      ],
      "transaction": {
        "from": "0xb00e22ece80c68c021704aedbd653f024509ac25",
        "to": "0x0009f72e3c176163037807f6365695dceed2a09b",
        "gas": "0x13e5c",
        "value": "0x0",
        "input": "0xabe73ef500000000000000000000000000000000000000000000000000000002540be400",
        "nonce": "0x45",
        "chainId": "0x221"
      },
      "additionalContracts": [],
      "isFixedGasLimit": false
    },
    {
      "hash": "0x84e5c308d2b832496fe3574e0def5c8a9d82efbb03ed6917428e3eb5e6046ab6",
      "transactionType": "CALL",
      "contractName": null,
      "contractAddress": "0x5923227b1e40febda88b5231a573069f9669fb9a",
      "function": "fundVault(uint256)",
      "arguments": [
        "100000000000000000000000"
      ],
      "transaction": {
        "from": "0xb00e22ece80c68c021704aedbd653f024509ac25",
        "to": "0x5923227b1e40febda88b5231a573069f9669fb9a",
        "gas": "0x1511d",
        "value": "0x0",
        "input": "0xabe73ef500000000000000000000000000000000000000000000152d02c7e14af6800000",
        "nonce": "0x46",
        "chainId": "0x221"
      },
      "additionalContracts": [],
      "isFixedGasLimit": false
    }
  ],
  "receipts": [
    {
      "status": "0x1",
      "cumulativeGasUsed": "0xb888",
      "logs": [
        {
          "address": "0x5fda84f0d0985e346ff0fe13dfd7760a9ff1ed43",
          "topics": [
            "0x8c5be1e5ebec7d5bd14f71427d1e84f3dd0314c0f7b2291e5b200ac8c7c3b925",
            "0x000000000000000000000000b00e22ece80c68c021704aedbd653f024509ac25",
            "0x0000000000000000000000005f1311808ed97661d5b31f4c67637d8952a54cc0"
          ],
          "data": "0xffffffffffffffffffffffffffffffffffffffffffffffffffffffffffffffff",
          "blockHash": "0x7ce9641da3c5520165e6142a33b3ecc56068be39f3445e0783c009052a886ca2",
          "blockNumber": "0x483221f",
          "blockTimestamp": "0x68fdceb6",
          "transactionHash": "0x47348e712b3486d937ff160f89094930336ced7e87d35591b1da1014755a111a",
          "transactionIndex": "0x0",
          "logIndex": "0x0",
          "removed": false
        }
      ],
      "logsBloom": "0x00000000000000000000000000000000000000000000000000000000000000000000000800000000000000000000000000000000000000002000000000200000000010000000000000000000000000000000000000000000000000000000000000000000000000000000000000000000000000000000000000000000000000000000000000000000000000004000000000000000000000000000000000000000020000000000000000000000000000000000000000000000000000000000040000000000000000000400000000000000004000000000000000000000000000000010000004000000000000000000000000000000000000000000000000000200",
      "type": "0x0",
      "transactionHash": "0x47348e712b3486d937ff160f89094930336ced7e87d35591b1da1014755a111a",
      "transactionIndex": "0x0",
      "blockHash": "0x7ce9641da3c5520165e6142a33b3ecc56068be39f3445e0783c009052a886ca2",
      "blockNumber": "0x483221f",
      "gasUsed": "0xb888",
      "effectiveGasPrice": "0x64",
      "from": "0xb00e22ece80c68c021704aedbd653f024509ac25",
      "to": "0x5fda84f0d0985e346ff0fe13dfd7760a9ff1ed43",
      "contractAddress": null
    },
    {
      "status": "0x1",
      "cumulativeGasUsed": "0x161cc",
      "logs": [
        {
          "address": "0x5fda84f0d0985e346ff0fe13dfd7760a9ff1ed43",
          "topics": [
            "0xddf252ad1be2c89b69c2b068fc378daa952ba7f163c4a11628f55a4df523b3ef",
            "0x000000000000000000000000b00e22ece80c68c021704aedbd653f024509ac25",
            "0x0000000000000000000000005f1311808ed97661d5b31f4c67637d8952a54cc0"
          ],
          "data": "0x0000000000000000000000000000000000000000000000000000000077359400",
          "blockHash": "0x48db1762f0968b282ebeb787f6b0239efe40aa2c58986f16d530cacc66163300",
          "blockNumber": "0x4832229",
          "blockTimestamp": "0x68fdcebb",
          "transactionHash": "0x19cec45b34997a1386a4894a17b67e1e9a9a39f0f513b26d1877244c2c1863d0",
          "transactionIndex": "0x0",
          "logIndex": "0x0",
          "removed": false
        },
        {
          "address": "0x13d855720e87ec59bfc4e27851027f5d8d8e9eae",
          "topics": [
            "0xddf252ad1be2c89b69c2b068fc378daa952ba7f163c4a11628f55a4df523b3ef",
            "0x0000000000000000000000000000000000000000000000000000000000000000",
            "0x000000000000000000000000b00e22ece80c68c021704aedbd653f024509ac25"
          ],
          "data": "0x000000000000000000000000000000000000000000002326e0c6ae4e5bc00000",
          "blockHash": "0x48db1762f0968b282ebeb787f6b0239efe40aa2c58986f16d530cacc66163300",
          "blockNumber": "0x4832229",
          "blockTimestamp": "0x68fdcebb",
          "transactionHash": "0x19cec45b34997a1386a4894a17b67e1e9a9a39f0f513b26d1877244c2c1863d0",
          "transactionIndex": "0x0",
          "logIndex": "0x1",
          "removed": false
        },
        {
          "address": "0x5f1311808ed97661d5b31f4c67637d8952a54cc0",
          "topics": [
            "0x78b39245ebe310a4ca8843cac668a9f31b981b7566c9c2e4409a8c240c99ece9",
            "0x000000000000000000000000b00e22ece80c68c021704aedbd653f024509ac25"
          ],
          "data": "0x000000000000000000000000000000000000000000002326e0c6ae4e5bc000000000000000000000000000000000000000000000000000000000000077359400",
          "blockHash": "0x48db1762f0968b282ebeb787f6b0239efe40aa2c58986f16d530cacc66163300",
          "blockNumber": "0x4832229",
          "blockTimestamp": "0x68fdcebb",
          "transactionHash": "0x19cec45b34997a1386a4894a17b67e1e9a9a39f0f513b26d1877244c2c1863d0",
          "transactionIndex": "0x0",
          "logIndex": "0x2",
          "removed": false
        }
      ],
      "logsBloom": "0x00000000001000000000000000000020000000000000000000000000000000000000000800000000000000000000000000000000000000002000000000000000000010000000000000000008000020000000000000000010000000000000000000000000020000000000000000000800000000000002000000000010000000000000000000000000040000004000000000000000000000000000000000000000000000000000000000000000000000000000000000000000000000000000040000000002000000000400000000000000004000000000000000000000000020000080000004000000000000000000008000000000000000000000020000000200",
      "type": "0x0",
      "transactionHash": "0x19cec45b34997a1386a4894a17b67e1e9a9a39f0f513b26d1877244c2c1863d0",
      "transactionIndex": "0x0",
      "blockHash": "0x48db1762f0968b282ebeb787f6b0239efe40aa2c58986f16d530cacc66163300",
      "blockNumber": "0x4832229",
      "gasUsed": "0x161cc",
      "effectiveGasPrice": "0x64",
      "from": "0xb00e22ece80c68c021704aedbd653f024509ac25",
      "to": "0x5f1311808ed97661d5b31f4c67637d8952a54cc0",
      "contractAddress": null
    },
    {
      "status": "0x1",
      "cumulativeGasUsed": "0xb72c",
      "logs": [
        {
          "address": "0x5fda84f0d0985e346ff0fe13dfd7760a9ff1ed43",
          "topics": [
            "0x8c5be1e5ebec7d5bd14f71427d1e84f3dd0314c0f7b2291e5b200ac8c7c3b925",
            "0x000000000000000000000000b00e22ece80c68c021704aedbd653f024509ac25",
            "0x0000000000000000000000000009f72e3c176163037807f6365695dceed2a09b"
          ],
          "data": "0x00000000000000000000000000000000000000000000000000000002540be400",
          "blockHash": "0xccb87b038b5105259263ef4865218a6876158f28aa1971db07129e6c1ca2a564",
          "blockNumber": "0x4832230",
          "blockTimestamp": "0x68fdcebe",
          "transactionHash": "0xec9757af124cf7205c0708b9f19000e98cae9071b808a326263c9cfe85023c0b",
          "transactionIndex": "0x0",
          "logIndex": "0x0",
          "removed": false
        }
      ],
      "logsBloom": "0x00000800000000000000000000000000000000000000000004000000000000000000000800000000000000000000000000000000000000000000000000200000000010000000000000000000000000000000000000000000000000000000000000000000000000000000000000000000000000000000000000000000000000000000000000000000000000004000000000000000000000000000000000000000020000000000000000000000000000000000000000000000000000000000040000000400000000000400000000000000000000000000000000000000000000000010000004000000000000000000000000000000000000000000000000000000",
      "type": "0x0",
      "transactionHash": "0xec9757af124cf7205c0708b9f19000e98cae9071b808a326263c9cfe85023c0b",
      "transactionIndex": "0x0",
      "blockHash": "0xccb87b038b5105259263ef4865218a6876158f28aa1971db07129e6c1ca2a564",
      "blockNumber": "0x4832230",
      "gasUsed": "0xb72c",
      "effectiveGasPrice": "0x64",
      "from": "0xb00e22ece80c68c021704aedbd653f024509ac25",
      "to": "0x5fda84f0d0985e346ff0fe13dfd7760a9ff1ed43",
      "contractAddress": null
    },
    {
      "status": "0x1",
      "cumulativeGasUsed": "0xb77f",
      "logs": [
        {
          "address": "0x13d855720e87ec59bfc4e27851027f5d8d8e9eae",
          "topics": [
            "0x8c5be1e5ebec7d5bd14f71427d1e84f3dd0314c0f7b2291e5b200ac8c7c3b925",
            "0x000000000000000000000000b00e22ece80c68c021704aedbd653f024509ac25",
            "0x0000000000000000000000005923227b1e40febda88b5231a573069f9669fb9a"
          ],
          "data": "0x00000000000000000000000000000000000000000000152d02c7e14af6800000",
          "blockHash": "0x9f33b62917e8ff3e4f5d46f0b46b646c8088c78fc6f624db271bb5f4f1df967a",
          "blockNumber": "0x483223b",
          "blockTimestamp": "0x68fdcec4",
          "transactionHash": "0x048094bccf8e4bcc45faeaffbbfbf3f22c7c8d095f15373d5a761417a1537311",
          "transactionIndex": "0x0",
          "logIndex": "0x0",
          "removed": false
        }
      ],
      "logsBloom": "0x00000000001000000000000000000020000000000000000000000000000000000000000000002000000000000000000000000000000000000000000000200000000000000000000000000000001000000000000000000000000000000000000000000000000000000000000000000000000000000000000000000000000000000000000000000000000000004000000000000000000000000000000000000000020000000000000000000000000000000000000000000000000000000000040000000000000000000000000000000000000000000000000000000000000000000010000005000000000000000000000000000000000000000000020000000000",
      "type": "0x0",
      "transactionHash": "0x048094bccf8e4bcc45faeaffbbfbf3f22c7c8d095f15373d5a761417a1537311",
      "transactionIndex": "0x0",
      "blockHash": "0x9f33b62917e8ff3e4f5d46f0b46b646c8088c78fc6f624db271bb5f4f1df967a",
      "blockNumber": "0x483223b",
      "gasUsed": "0xb77f",
      "effectiveGasPrice": "0x64",
      "from": "0xb00e22ece80c68c021704aedbd653f024509ac25",
      "to": "0x13d855720e87ec59bfc4e27851027f5d8d8e9eae",
      "contractAddress": null
    },
    {
      "status": "0x1",
      "cumulativeGasUsed": "0xe67e",
      "logs": [
        {
          "address": "0x5fda84f0d0985e346ff0fe13dfd7760a9ff1ed43",
          "topics": [
            "0xddf252ad1be2c89b69c2b068fc378daa952ba7f163c4a11628f55a4df523b3ef",
            "0x000000000000000000000000b00e22ece80c68c021704aedbd653f024509ac25",
            "0x0000000000000000000000000009f72e3c176163037807f6365695dceed2a09b"
          ],
          "data": "0x00000000000000000000000000000000000000000000000000000002540be400",
          "blockHash": "0x92d3eb6d36c6bd161c611a63ca18e730b529f3d7aa0a731bfd050296985cb959",
          "blockNumber": "0x4832246",
          "blockTimestamp": "0x68fdcec9",
          "transactionHash": "0x681eca6c025afbe9c63815ad24ecbdb2b3f9d731e162457a0dca4fb184acc604",
          "transactionIndex": "0x0",
          "logIndex": "0x0",
          "removed": false
        }
      ],
      "logsBloom": "0x00000800000000000000000000000000000000000000000004000000000000000000000800000000000000000000000000000000000000000000000000000000000010000000000000000008000000000000000000000000000000000000000000000000000000000000000000000000000000000000000000000010000000000000000000000000000000004000000000000000000000000000000000000000000000000000000000000000000000000000000000000000000000000000040000000402000000000400000000000000000000000000000000000000000000000000000004000000000000000000000000000000000000000000000000000000",
      "type": "0x0",
      "transactionHash": "0x681eca6c025afbe9c63815ad24ecbdb2b3f9d731e162457a0dca4fb184acc604",
      "transactionIndex": "0x0",
      "blockHash": "0x92d3eb6d36c6bd161c611a63ca18e730b529f3d7aa0a731bfd050296985cb959",
      "blockNumber": "0x4832246",
      "gasUsed": "0xe67e",
      "effectiveGasPrice": "0x64",
      "from": "0xb00e22ece80c68c021704aedbd653f024509ac25",
      "to": "0x0009f72e3c176163037807f6365695dceed2a09b",
      "contractAddress": null
    },
    {
      "status": "0x1",
      "cumulativeGasUsed": "0xe682",
      "logs": [
        {
          "address": "0x13d855720e87ec59bfc4e27851027f5d8d8e9eae",
          "topics": [
            "0xddf252ad1be2c89b69c2b068fc378daa952ba7f163c4a11628f55a4df523b3ef",
            "0x000000000000000000000000b00e22ece80c68c021704aedbd653f024509ac25",
            "0x0000000000000000000000005923227b1e40febda88b5231a573069f9669fb9a"
          ],
          "data": "0x00000000000000000000000000000000000000000000152d02c7e14af6800000",
          "blockHash": "0x3fa64eac3919fd4e10c6e6c347d90bc3faa457e0bcb705d07595f074ece9d149",
          "blockNumber": "0x4832250",
          "blockTimestamp": "0x68fdcece",
          "transactionHash": "0x84e5c308d2b832496fe3574e0def5c8a9d82efbb03ed6917428e3eb5e6046ab6",
          "transactionIndex": "0x0",
          "logIndex": "0x0",
          "removed": false
        }
      ],
      "logsBloom": "0x00000000001000000000000000000020000000000000000000000000000000000000000000002000000000000000000000000000000000000000000000000000000000000000000000000008001000000000000000000000000000000000000000000000000000000000000000000000000000000000000000000010000000000000000000000000000000004000000000000000000000000000000000000000000000000000000000000000000000000000000000000000000000000000040000000002000000000000000000000000000000000000000000000000000000000000000005000000000000000000000000000000000000000000020000000000",
      "type": "0x0",
      "transactionHash": "0x84e5c308d2b832496fe3574e0def5c8a9d82efbb03ed6917428e3eb5e6046ab6",
      "transactionIndex": "0x0",
      "blockHash": "0x3fa64eac3919fd4e10c6e6c347d90bc3faa457e0bcb705d07595f074ece9d149",
      "blockNumber": "0x4832250",
      "gasUsed": "0xe682",
      "effectiveGasPrice": "0x64",
      "from": "0xb00e22ece80c68c021704aedbd653f024509ac25",
      "to": "0x5923227b1e40febda88b5231a573069f9669fb9a",
      "contractAddress": null
    }
  ],
  "libraries": [],
  "pending": [],
  "returns": {},
  "timestamp": 1761464018454,
  "chain": 545,
  "commit": "3868d63"
}