{
  "transactions": [
    {
      "hash": "0xdbfd1fbdb46c1f4b37a3c64086958be3e30d9641f220e425229629f985a4efef",
      "transactionType": "CALL",
      "contractName": null,
      "contractAddress": "0x544759a30fd8fbf6e26b2184119f49921bf3c265",
      "function": "setVaultManager(address)",
      "arguments": [
        "0x2241e8cC49b20fd631C7Cf5810fd87DB78AAe97e"
      ],
      "transaction": {
        "from": "0xb00e22ece80c68c021704aedbd653f024509ac25",
        "to": "0x544759a30fd8fbf6e26b2184119f49921bf3c265",
        "gas": "0xa033",
        "value": "0x0",
        "input": "0xb543503e0000000000000000000000002241e8cc49b20fd631c7cf5810fd87db78aae97e",
        "nonce": "0x26",
        "chainId": "0x221"
      },
      "additionalContracts": [],
      "isFixedGasLimit": false
    },
    {
      "hash": "0xa6357747fb9c9e48310062a2547d0b6ed52bd35e290509388e06d04d80314e0c",
      "transactionType": "CALL",
      "contractName": null,
      "contractAddress": "0x883fa6be70d11516dc3d9ed851278829a746840f",
      "function": "transferOwnership(address)",
      "arguments": [
        "0x2241e8cC49b20fd631C7Cf5810fd87DB78AAe97e"
      ],
      "transaction": {
        "from": "0xb00e22ece80c68c021704aedbd653f024509ac25",
        "to": "0x883fa6be70d11516dc3d9ed851278829a746840f",
        "gas": "0xa5f6",
        "value": "0x0",
        "input": "0xf2fde38b0000000000000000000000002241e8cc49b20fd631c7cf5810fd87db78aae97e",
        "nonce": "0x27",
        "chainId": "0x221"
      },
      "additionalContracts": [],
      "isFixedGasLimit": false
    }
  ],
  "receipts": [
    {
      "status": "0x1",
      "cumulativeGasUsed": "0x6d8a",
      "logs": [
        {
          "address": "0x544759a30fd8fbf6e26b2184119f49921bf3c265",
          "topics": [
            "0x8cfaacab0869ad5307d9175b1a62164d7c9630958cbbc7bc9918133cd6fbb02d",
            "0x0000000000000000000000002241e8cc49b20fd631c7cf5810fd87db78aae97e",
            "0x0000000000000000000000002241e8cc49b20fd631c7cf5810fd87db78aae97e"
          ],
          "data": "0x",
          "blockHash": "0x1d35a922e486672a52ae6b6e460de9cdea580a8584d554f961098107c7a80b51",
          "blockNumber": "0x4814df7",
          "blockTimestamp": "0x68fce4a2",
          "transactionHash": "0xdbfd1fbdb46c1f4b37a3c64086958be3e30d9641f220e425229629f985a4efef",
          "transactionIndex": "0x0",
          "logIndex": "0x0",
          "removed": false
        }
      ],
      "logsBloom": "0x00000000000000000000000000000000000000000000000000000000000000000000004000000000000000000000000000002000000000000000000000000000000000000000008000000400000000000000000000000000000000000000000000000000000000000000000000000000000000000000000000000000000000000200000000200000000000000000000000000000000000000000000000000000000000000000000000000000000200000000000000000000000000080000000000000000000000000000000000000000000000000000000000000000000000000000000000000000000000000000000000200000000000000000000000000000",
      "type": "0x2",
      "transactionHash": "0xdbfd1fbdb46c1f4b37a3c64086958be3e30d9641f220e425229629f985a4efef",
      "transactionIndex": "0x0",
      "blockHash": "0x1d35a922e486672a52ae6b6e460de9cdea580a8584d554f961098107c7a80b51",
      "blockNumber": "0x4814df7",
      "gasUsed": "0x6d8a",
      "effectiveGasPrice": "0x64",
      "from": "0xb00e22ece80c68c021704aedbd653f024509ac25",
      "to": "0x544759a30fd8fbf6e26b2184119f49921bf3c265",
      "contractAddress": null
    },
    {
      "status": "0x1",
      "cumulativeGasUsed": "0x717b",
      "logs": [
        {
          "address": "0x883fa6be70d11516dc3d9ed851278829a746840f",
          "topics": [
            "0x8be0079c531659141344cd1fd0a4f28419497f9722a3daafe3b4186f6b6457e0",
            "0x000000000000000000000000b00e22ece80c68c021704aedbd653f024509ac25",
            "0x0000000000000000000000002241e8cc49b20fd631c7cf5810fd87db78aae97e"
          ],
          "data": "0x",
          "blockHash": "0xcf822866b67e2add7307bc3f05099211f3f5cb8527b847749f5faf75cd481d13",
          "blockNumber": "0x4814df8",
          "blockTimestamp": "0x68fce4a2",
          "transactionHash": "0xa6357747fb9c9e48310062a2547d0b6ed52bd35e290509388e06d04d80314e0c",
          "transactionIndex": "0x0",
          "logIndex": "0x0",
          "removed": false
        }
      ],
      "logsBloom": "0x00000000000000000000000000000000020000000000000000800000000000000000004000000000000000000000000000000000000000000000000000000000000000000000000000000000000000000001000000000000000000000000000000040000000000000000000000000000000000000000000000000000000000400000000000200000000000004000000000000000000000000000000200000000000000000000000000000000000200000000000000000000000000000000040000000000000000000000000000000000000000000000000000000000000000000000000004000000000000000000000000000000000000000000000000000000",
      "type": "0x2",
      "transactionHash": "0xa6357747fb9c9e48310062a2547d0b6ed52bd35e290509388e06d04d80314e0c",
      "transactionIndex": "0x0",
      "blockHash": "0xcf822866b67e2add7307bc3f05099211f3f5cb8527b847749f5faf75cd481d13",
      "blockNumber": "0x4814df8",
      "gasUsed": "0x717b",
      "effectiveGasPrice": "0x64",
      "from": "0xb00e22ece80c68c021704aedbd653f024509ac25",
      "to": "0x883fa6be70d11516dc3d9ed851278829a746840f",
      "contractAddress": null
    }
  ],
  "libraries": [],
  "pending": [],
  "returns": {},
  "timestamp": 1761404070557,
  "chain": 545,
  "commit": null
}